{
  "contractName": "Parse",
  "abi": [
    {
      "anonymous": false,
      "inputs": [
        {
          "indexed": false,
          "internalType": "string",
          "name": "_appId",
          "type": "string"
        }
      ],
      "name": "AppCreated",
      "type": "event"
    },
    {
      "anonymous": false,
      "inputs": [
        {
          "indexed": false,
          "internalType": "string",
          "name": "_appId",
          "type": "string"
        },
        {
          "indexed": false,
          "internalType": "string",
          "name": "_className",
          "type": "string"
        }
      ],
      "name": "ClassCreated",
      "type": "event"
    },
    {
      "anonymous": false,
      "inputs": [
        {
          "indexed": false,
          "internalType": "string",
          "name": "_appId",
          "type": "string"
        },
        {
          "indexed": false,
          "internalType": "string",
          "name": "_className",
          "type": "string"
        },
        {
          "indexed": false,
          "internalType": "string",
          "name": "_objectId",
          "type": "string"
        },
        {
          "indexed": false,
          "internalType": "string",
          "name": "_objectJSON",
          "type": "string"
        }
      ],
      "name": "ObjectCreated",
      "type": "event"
    },
    {
      "constant": true,
      "inputs": [],
      "name": "owner",
      "outputs": [
        {
          "internalType": "address",
          "name": "",
          "type": "address"
        }
      ],
      "payable": false,
      "stateMutability": "view",
      "type": "function"
    },
    {
      "constant": false,
      "inputs": [
        {
          "internalType": "string",
          "name": "_appId",
          "type": "string"
        },
        {
          "internalType": "string",
          "name": "_className",
          "type": "string"
        },
        {
          "internalType": "string",
          "name": "_objectId",
          "type": "string"
        },
        {
          "internalType": "string",
          "name": "_objectJSON",
          "type": "string"
        }
      ],
      "name": "createObject",
      "outputs": [],
      "payable": false,
      "stateMutability": "nonpayable",
      "type": "function"
    },
    {
      "constant": true,
      "inputs": [
        {
          "internalType": "string",
          "name": "_appId",
          "type": "string"
        },
        {
          "internalType": "string",
          "name": "_className",
          "type": "string"
        },
        {
          "internalType": "string",
          "name": "_objectId",
          "type": "string"
        }
      ],
      "name": "getObjectJSON",
      "outputs": [
        {
          "internalType": "string",
          "name": "",
          "type": "string"
        }
      ],
      "payable": false,
      "stateMutability": "view",
      "type": "function"
    }
  ],
  "bytecode": "0x6080604052336000806101000a81548173ffffffffffffffffffffffffffffffffffffffff021916908373ffffffffffffffffffffffffffffffffffffffff16021790555034801561005057600080fd5b50611245806100606000396000f3fe608060405234801561001057600080fd5b50600436106100415760003560e01c806381f0a77b146100465780638da5cb5b146102c6578063e6b27b3314610310575b600080fd5b6102c46004803603608081101561005c57600080fd5b810190808035906020019064010000000081111561007957600080fd5b82018360208201111561008b57600080fd5b803590602001918460018302840111640100000000831117156100ad57600080fd5b91908080601f016020809104026020016040519081016040528093929190818152602001838380828437600081840152601f19601f8201169050808301925050505050505091929192908035906020019064010000000081111561011057600080fd5b82018360208201111561012257600080fd5b8035906020019184600183028401116401000000008311171561014457600080fd5b91908080601f016020809104026020016040519081016040528093929190818152602001838380828437600081840152601f19601f820116905080830192505050505050509192919290803590602001906401000000008111156101a757600080fd5b8201836020820111156101b957600080fd5b803590602001918460018302840111640100000000831117156101db57600080fd5b91908080601f016020809104026020016040519081016040528093929190818152602001838380828437600081840152601f19601f8201169050808301925050505050505091929192908035906020019064010000000081111561023e57600080fd5b82018360208201111561025057600080fd5b8035906020019184600183028401116401000000008311171561027257600080fd5b91908080601f016020809104026020016040519081016040528093929190818152602001838380828437600081840152601f19601f820116905080830192505050505050509192919290505050610572565b005b6102ce610eb6565b604051808273ffffffffffffffffffffffffffffffffffffffff1673ffffffffffffffffffffffffffffffffffffffff16815260200191505060405180910390f35b6104f76004803603606081101561032657600080fd5b810190808035906020019064010000000081111561034357600080fd5b82018360208201111561035557600080fd5b8035906020019184600183028401116401000000008311171561037757600080fd5b91908080601f016020809104026020016040519081016040528093929190818152602001838380828437600081840152601f19601f820116905080830192505050505050509192919290803590602001906401000000008111156103da57600080fd5b8201836020820111156103ec57600080fd5b8035906020019184600183028401116401000000008311171561040e57600080fd5b91908080601f016020809104026020016040519081016040528093929190818152602001838380828437600081840152601f19601f8201169050808301925050505050505091929192908035906020019064010000000081111561047157600080fd5b82018360208201111561048357600080fd5b803590602001918460018302840111640100000000831117156104a557600080fd5b91908080601f016020809104026020016040519081016040528093929190818152602001838380828437600081840152601f19601f820116905080830192505050505050509192919290505050610edb565b6040518080602001828103825283818151815260200191508051906020019080838360005b8381101561053757808201518184015260208101905061051c565b50505050905090810190601f1680156105645780820380516001836020036101000a031916815260200191505b509250505060405180910390f35b6000809054906101000a900473ffffffffffffffffffffffffffffffffffffffff1673ffffffffffffffffffffffffffffffffffffffff163373ffffffffffffffffffffffffffffffffffffffff1614610617576040517f08c379a00000000000000000000000000000000000000000000000000000000081526004018080602001828103825260338152602001806111de6033913960400191505060405180910390fd5b600084511161068e576040517f08c379a00000000000000000000000000000000000000000000000000000000081526004018080602001828103825260128152602001807f5f6170704964206973207265717569726564000000000000000000000000000081525060200191505060405180910390fd5b6000835111610705576040517f08c379a00000000000000000000000000000000000000000000000000000000081526004018080602001828103825260168152602001807f5f636c6173734e616d652069732072657175697265640000000000000000000081525060200191505060405180910390fd5b600082511161077c576040517f08c379a00000000000000000000000000000000000000000000000000000000081526004018080602001828103825260158152602001807f5f6f626a6563744964206973207265717569726564000000000000000000000081525060200191505060405180910390fd5b60008151116107f3576040517f08c379a00000000000000000000000000000000000000000000000000000000081526004018080602001828103825260178152602001807f5f6f626a6563744a534f4e20697320726571756972656400000000000000000081525060200191505060405180910390fd5b60006002856040518082805190602001908083835b6020831061082b5780518252602082019150602081019050602083039250610808565b6001836020036101000a03801982511681845116808217855250505050505090500191505090815260200160405180910390209050600081600001805490501161094b5760018590806001815401808255809150509060018203906000526020600020016000909192909190915090805190602001906108ac929190611138565b50507fbf10e732247aaec2a44f31a8c41fa1de4127fdcfb1b52fe66c5467f7a79f4eeb856040518080602001828103825283818151815260200191508051906020019080838360005b838110156109105780820151818401526020810190506108f5565b50505050905090810190601f16801561093d5780820380516001836020036101000a031916815260200191505b509250505060405180910390a15b600081600101856040518082805190602001908083835b602083106109855780518252602082019150602081019050602083039250610962565b6001836020036101000a038019825116818451168082178552505050505050905001915050908152602001604051809103902090506000816000018054905011610b145781600001859080600181540180825580915050906001820390600052602060002001600090919290919091509080519060200190610a08929190611138565b50507ffd5b71fb3e543d1d95b62781981b5777c97f2ad93554c5e2af28990d2506b4e08686604051808060200180602001838103835285818151815260200191508051906020019080838360005b83811015610a71578082015181840152602081019050610a56565b50505050905090810190601f168015610a9e5780820380516001836020036101000a031916815260200191505b50838103825284818151815260200191508051906020019080838360005b83811015610ad7578082015181840152602081019050610abc565b50505050905090810190601f168015610b045780820380516001836020036101000a031916815260200191505b5094505050505060405180910390a15b600081600101856040518082805190602001908083835b60208310610b4e5780518252602082019150602081019050602083039250610b2b565b6001836020036101000a03801982511681845116808217855250505050505090500191505090815260200160405180910390208054600181600116156101000203166002900490501115610c0a576040517f08c379a00000000000000000000000000000000000000000000000000000000081526004018080602001828103825260188152602001807f5f6f626a6563744964206d75737420626520756e69717565000000000000000081525060200191505060405180910390fd5b80600001849080600181540180825580915050906001820390600052602060002001600090919290919091509080519060200190610c49929190611138565b50508281600101856040518082805190602001908083835b60208310610c845780518252602082019150602081019050602083039250610c61565b6001836020036101000a03801982511681845116808217855250505050505090500191505090815260200160405180910390209080519060200190610cca929190611138565b507f41f3752dbeef66b4f3cbc3e77aa71e7ce2ff5996a6008fefc36cf033e27f4761868686866040518080602001806020018060200180602001858103855289818151815260200191508051906020019080838360005b83811015610d3c578082015181840152602081019050610d21565b50505050905090810190601f168015610d695780820380516001836020036101000a031916815260200191505b50858103845288818151815260200191508051906020019080838360005b83811015610da2578082015181840152602081019050610d87565b50505050905090810190601f168015610dcf5780820380516001836020036101000a031916815260200191505b50858103835287818151815260200191508051906020019080838360005b83811015610e08578082015181840152602081019050610ded565b50505050905090810190601f168015610e355780820380516001836020036101000a031916815260200191505b50858103825286818151815260200191508051906020019080838360005b83811015610e6e578082015181840152602081019050610e53565b50505050905090810190601f168015610e9b5780820380516001836020036101000a031916815260200191505b509850505050505050505060405180910390a1505050505050565b6000809054906101000a900473ffffffffffffffffffffffffffffffffffffffff1681565b6060806002856040518082805190602001908083835b60208310610f145780518252602082019150602081019050602083039250610ef1565b6001836020036101000a0380198251168184511680821785525050505050509050019150509081526020016040518091039020600101846040518082805190602001908083835b60208310610f7e5780518252602082019150602081019050602083039250610f5b565b6001836020036101000a0380198251168184511680821785525050505050509050019150509081526020016040518091039020600101836040518082805190602001908083835b60208310610fe85780518252602082019150602081019050602083039250610fc5565b6001836020036101000a03801982511681845116808217855250505050505090500191505090815260200160405180910390208054600181600116156101000203166002900480601f0160208091040260200160405190810160405280929190818152602001828054600181600116156101000203166002900480156110af5780601f10611084576101008083540402835291602001916110af565b820191906000526020600020905b81548152906001019060200180831161109257829003601f168201915b50505050509050600081511161112d576040517f08c379a00000000000000000000000000000000000000000000000000000000081526004018080602001828103825260198152602001807f546865206f626a65637420646f6573206e6f742065786973740000000000000081525060200191505060405180910390fd5b809150509392505050565b828054600181600116156101000203166002900490600052602060002090601f016020900481019282601f1061117957805160ff19168380011785556111a7565b828001600101855582156111a7579182015b828111156111a657825182559160200191906001019061118b565b5b5090506111b491906111b8565b5090565b6111da91905b808211156111d65760008160009055506001016111be565b5090565b9056fe546869732066756e6374696f6e206973207265737472696374656420746f2074686520636f6e74726163742773206f776e6572a265627a7a72315820b44dfd2980ee531d6824a005bb53e93dc5bf471c961beb23f165c8c84bb97a5564736f6c63430005100032",
  "source": "// SPDX-License-Identifier: MIT\npragma solidity >=0.4.22 <0.9.0;\n\ncontract Parse {\n  struct Class {\n    string[] objectsIds;\n    mapping(string => string) objectJSONById;\n  }\n\n  struct App {\n    string[] classesNames;\n    mapping(string => Class) classByName;\n  }\n\n  event AppCreated (\n    string _appId\n  );\n\n  event ClassCreated (\n    string _appId,\n    string _className\n  );\n\n  event ObjectCreated (\n    string _appId,\n    string _className,\n    string _objectId,\n    string _objectJSON\n  );\n\n  address public owner = msg.sender;\n  string[] appsIds;\n  mapping(string => App) appById;\n\n  function createObject(string memory _appId, string memory _className, string memory _objectId, string memory _objectJSON) public {\n    require(msg.sender == owner, \"This function is restricted to the contract's owner\");\n    require(bytes(_appId).length > 0, \"_appId is required\");\n    require(bytes(_className).length > 0, \"_className is required\");\n    require(bytes(_objectId).length > 0, \"_objectId is required\");\n    require(bytes(_objectJSON).length > 0, \"_objectJSON is required\");\n    App storage app = appById[_appId];\n    if (app.classesNames.length <= 0) {\n      appsIds.push(_appId);\n      emit AppCreated(_appId);\n    }\n    Class storage class = app.classByName[_className];\n    if (class.objectsIds.length <= 0) {\n      app.classesNames.push(_className);\n      emit ClassCreated(_appId, _className);\n    }\n    require(bytes(class.objectJSONById[_objectId]).length <= 0, \"_objectId must be unique\");\n    class.objectsIds.push(_objectId);\n    class.objectJSONById[_objectId] = _objectJSON;\n    emit ObjectCreated(_appId, _className, _objectId, _objectJSON);\n  }\n\n  function getObjectJSON(string memory _appId, string memory _className, string memory _objectId) public view returns (string memory) {\n    string memory objectJSON = appById[_appId].classByName[_className].objectJSONById[_objectId];\n    require(bytes(objectJSON).length > 0, \"The object does not exist\");\n    return objectJSON;\n  }\n}\n",
  "sourcePath": "/Users/davimacedo/Projects/parse-server-blockchain/packages/ethereum/contracts/Parse.sol",
  "compiler": {
    "name": "solc",
    "version": "0.5.16+commit.9c3226ce.Emscripten.clang"
  },
  "schemaVersion": "3.4.2",
  "updatedAt": "2021-08-12T00:52:59.291Z",
  "devdoc": {
    "methods": {}
  },
  "userdoc": {
    "methods": {}
  }
}